:100000000C943D000C9433050C9478050C945A0024
:100010000C945A000C945A000C945A000C945A00F8
:100020000C945A000C94BD050C945A000C945A0080
:100030000C945A000C945A000C9413020C945A001D
:100040000C945A000C945A000C945A000C945A00C8
:100050000C945A000C945A000C945A000C945A00B8
:100060000C945A000C945A00ED032E048704C20429
:1000700084036803F60402051A0511241FBECFEF9E
:10008000D8E0DEBFCDBF11E0A0E0B1E0ECE8FDE0DC
:1000900002C005900D92AA35B107D9F721E0AAE573
:1000A000B1E001C01D92A63AB207E1F70E94FE023C
:1000B0000C94C4060C9400008EBD0DB407FEFDCF59
:1000C000089594B19D6294B9289A92E59CBD559A81
:1000D00093E394BD9CE095BD92E090936E0090E315
:1000E00097BD880F880F88BD28988CE00E945C001F
:1000F00081E00E945C00289A28988BE00E945C00B6
:1001000087E00E945C00289A28988AE00E945C00A0
:100110008FE00E945C00289A289889E00E945C0089
:1001200080E00E945C00289A28988FE00E945C0082
:1001300080E00E945C00289A80E090E0FC01EC598D
:10014000FE4F1082FC01E45AFE4F10820196883067
:100150009105A1F70895809178018F5F853118F49A
:100160008093780108951092780180E090E0FC017E
:10017000EC59FE4F2081209520830196883091050F
:10018000B1F7089590910001992319F092E09093AE
:1001900000012091000130E0F901E957FE4F908104
:1001A000911103C081117CC013C0F901E957FE4FC2
:1001B000E0810E2E000CFF0BEF5FFE4F90819093BD
:1001C0007F01F901E159FE4F9081992351F00BC055
:1001D00010927F01F901E159FE4F8081882381F05F
:1001E00002C0882369F0F901E159FE4FE0810E2E2B
:1001F000000CFF0BEF5FFE4F80818093830102C0F4
:1002000010928301A9014F5F5F4FFA01E957FE4F3A
:10021000E0810E2E000CFF0BEF5FFE4F80818068A7
:10022000EFE7F1E08183C9010296DC01A957BE4FD7
:10023000AC910A2E000CBB0BAF5FBE4F6C9162837A
:100240002D5F3F4FD901A957BE4FAC910A2E000C2C
:10025000BB0BAF5FBE4F6C916383DA01A159BE4FF8
:10026000AC910A2E000CBB0BAF5FBE4F4C914068A7
:100270004583DC01A159BE4FAC910A2E000CBB0B8B
:10028000AF5FBE4F8C918683D901A159BE4FAC910F
:100290000A2E000CBB0BAF5FBE4F8C918783089575
:1002A000F901E957FE4FE0810E2E000CFF0BEF5FC6
:1002B000FE4F808180937F01F901E159FE4F8081DB
:1002C00092CF9FEB980F9A3118F4E9ECE80F14C025
:1002D000803279F09FE9980F9A3118F4E9EAE80F33
:1002E0000BC0E0EDE80FEA3038F08F3321F0E5E2A3
:1002F00003C0E5E201C0E4E270E0F0E0EF5FFE4F32
:100300008081FB01E158FE4F80830895EF92FF92B8
:100310000F931F93CF93DF938C01C62FD42F6417B5
:10032000E8F4E62EF12CFC018081882379F06C2F13
:100330000E946101CF5FCD1788F4EC2FF0E0EE1939
:10034000FF09E00FF11F80818111F1CFEC2FF0E068
:10035000E158FE4F1082CF5FCD17C0F3DF91CF91F0
:100360001F910F91FF90EF900895DF92EF92FF920F
:100370000F931F93CF93DF9300D01F92CDB7DEB7BB
:10038000582F84E689838AE08A8381E08B83E62F75
:10039000F0E0E158FE4F1082DE01119620E030E0DF
:1003A000D12C062F10E0FF24F3940F2EFEE7EF2E42
:1003B000F02D4D912F5F3F4F852F642F0E948006B7
:1003C000811114C0D11002C0233041F4C801820F42
:1003D000931F81589E4FFC01E08217C0C801820F15
:1003E000931F81589E4FFC0110820FC0E82FF0E050
:1003F000EF5FFE4F9081F801E20FF31FE158FE4FCF
:100400009083489F50191124DF2C2330310589F641
:100410000F900F900F90DF91CF911F910F91FF9050
:10042000EF90DF9008951F920F920FB60F92112454
:100430002F933F934F935F936F937F938F939F93EC
:10044000AF93BF93CF93EF93FF932898C0915A0136
:1004500081E08C0F0E945C002C2F30E0F901E15804
:10046000FE4F4081F901E45AFE4F8081F901EC59B9
:10047000FE4F90818923809584230E945C00289AF6
:1004800080915A018F5F877080935A01FF91EF919D
:10049000CF91BF91AF919F918F917F916F915F911C
:1004A0004F913F912F910F900FBE0F901F90189575
:1004B000809197018093980196B190939701892735
:1004C000292F2095282320939901892380939B012C
:1004D00092FD08C080919A018C3330F48F5F809335
:1004E0009A01089510929A0108958AE08093690014
:1004F00083E08DBB8BB18C608BB988B18F6188B97B
:100500000E9458020E945802089580E28093B6002B
:10051000E1EBF0E0808181608083E6EBF0E08081B8
:1005200080FDFDCF81E087BB0895FC018581680FC8
:10053000658385818A304CF085818A5085838481EA
:100540008F5F848385818A30BCF7848186304CF04C
:1005500084818650848383818F5F83838481863006
:10056000BCF783818A304CF083818A5083838281F7
:100570008F5F828383818A30BCF7828186304CF022
:1005800082818650828381818F5F818382818630E0
:10059000BCF781818A304CF081818A5081838081CF
:1005A0008F5F808381818A30BCF780818A303CF004
:1005B00089E0808381838283838384838583089514
:1005C000EFE8F1E080E090E02191DC01A957BE4F17
:1005D0002C93DC01A159BE4F2C93019686309105D6
:1005E00099F71092750110926E0110929D01109270
:1005F0009C011092A00110929F01089585E791E05F
:1006000090938E0180938D0187E891E090936D0126
:1006100080936C018CE991E09093A3018093A201F7
:1006200085E08093A4018AB1806C8AB95F985E9A54
:100630000E943B060E94E002809176010E946100C8
:100640000E9475020E9485020E944E067894C6E7B9
:10065000D1E00F2EF5E0AF2EF02D909027010F2E58
:10066000F0E7EF2EF12CF02DBB24B3940F2EF6E023
:100670007F2EF02D0F2EF7E06F2EF02D0FE811E0FA
:100680006894552451F80F2EF9E04F2EF02D882450
:100690008A940F2EFCE5CF2EF1E0DF2EF02D0E9484
:1006A0005802809199018F7131F08981882319F066
:1006B00080E00E946F06E091A4018E2F90E08930C7
:1006C000910508F0C5C1FC01EC5CFF4F0C948C0651
:1006D0008091990182FF05C0F701B0827092A40158
:1006E0000FC080FF03C01092A4010AC081FF08C0A0
:1006F00010925B01F6018082848284E08093A401E1
:1007000080E00E94C200A4C19091990192FF10C0A4
:1007100080915B0190E0FC01E45AFE4F1082FC01E5
:10072000E05AFE4F10820E942806A092A40151C0F8
:1007300091FF1AC080915B01282F30E0F901E45A43
:10074000FE4F1082F901E05AFE4F10828F5F8370D6
:1007500080935B0190E0FC01E45AFE4F8082FC0133
:10076000E05AFE4F808235C0892F887191F18091C7
:100770005B0180FF02C0242D01C02A2D94FF11C00F
:10078000E82FF0E0E757FE4F60816F5F6083462FF0
:10079000062E000C550B30E02417350764F460E09A
:1007A0000AC0E82FF0E0E757FE4F60816150608398
:1007B00066230CF4622F90E00296FC01E157FE4F95
:1007C0006083FC01E957FE4F6083FC01E159FE4F55
:1007D00060838B2D0E94C2003BC18091990182FFF2
:1007E00005C00E942806A092A40117C080FF03C084
:1007F000B092A40112C084FF0AC0F80186818F5F05
:10080000843010F4868309C0F801168206C083FF85
:1008100004C0F8018681815086838091A40190E014
:100820009C01220F331F220F331F820F931F44E0BE
:1008300060E08A5B9E4F0E948601F801868190E00D
:100840009C01220F331F220F331F820F931F48E09A
:1008500064E08E5C9E4F0E948601FAC080919901EF
:1008600082FF05C00E942806A092A4013AC080FF22
:1008700003C05092A40135C084FF19C0F8018781DC
:10088000843118F48F5F87832CC08D3220F48B5F06
:10089000F801878326C08C3320F4815FF8018783B9
:1008A00020C0843BF0F4825EF80187831AC083FF86
:1008B00018C0F80187818D3318F08E51878311C0DD
:1008C0008E3220F08F50F80187830BC0853120F0E5
:1008D0008550F801878305C0882319F08150F801FD
:1008E00087838091A40190E09C01220F331F220F87
:1008F000331F820F931F44E060E08A5B9E4F0E948B
:10090000860164E0F80187810E94B501A1C0809151
:10091000990182FF05C00E942806A092A4011DC073
:1009200080FF04C083E08093A40117C084FF0AC045
:1009300088818A3010F48F5F88838881880F880FC0
:1009400088BD0BC083FF09C08881823010F08150C0
:1009500088838881880F880F88BD8091A40190E0EA
:100960009C01220F331F220F331F820F931F44E07D
:1009700060E08A5B9E4F0E94860164E088810E944D
:10098000B50166C08091990182FF05C00E942806CA
:10099000A092A4010BC080FF03C01092A40106C066
:1009A000887121F089818F5F817089838091A40192
:1009B00090E09C01220F331F220F331F820F931FE1
:1009C00044E060E08A5B9E4F0E948601898190E04E
:1009D0009C01220F331F220F331F820F931F48E009
:1009E00064E0885D9E4F0E94860132C0809199012B
:1009F00082FF04C0F70110826092A40180E00E948F
:100A0000C20026C080919A01891540F00E94E00240
:100A100083E00E946F06A092A40108C08091990112
:100A200082FF04C0F701B0827092A40180E00E94AE
:100A3000C2000EC08091990182FF07C00E94E002AF
:100A400083E00E946F06A092A40180E00E94C20091
:100A50000E94AB000E9464068FE295E70197F1F7D0
:100A600000C000001CCE1F920F920FB60F921124EF
:100A70002F933F934F935F936F937F938F939F93A6
:100A8000AF93BF93EF93FF938091A401863089F4D5
:100A900080916C0190916D018758914051F4809143
:100AA0009501813031F46091960187E891E00E94D0
:100AB00095028FE691E090936D0180936C018EE634
:100AC00091E090938E0180938D015F9A5E98FF91E3
:100AD000EF91BF91AF919F918F917F916F915F91B6
:100AE0004F913F912F910F900FBE0F901F9018952F
:100AF0001F920F920FB60F9211242F933F934F9393
:100B00005F936F937F938F939F93AF93BF93EF9375
:100B1000FF938091A401863089F480916C019091BB
:100B20006D018F56914051F480919501813031F4DF
:100B3000609196018FE691E00E94950287E891E02E
:100B400090936D0180936C0185E791E090938E0105
:100B500080938D015E9A5F98FF91EF91BF91AF9165
:100B60009F918F917F916F915F914F913F912F91C5
:100B70000F900FBE0F901F9018951F920F920FB6F7
:100B80000F9211248F93EF93FF93E0918D01F091D9
:100B90008E0180818F5F808388230CF051C0E091AB
:100BA0008D01F0918E011082E0916C01F0916D0148
:100BB00085818150858388230CF042C089E085833C
:100BC0008481815084838823DCF585E0848383815C
:100BD000815083838823A4F589E0838382818150B7
:100BE000828388236CF585E08283818181508183B3
:100BF000882334F5E0916C01F0916D0189E08183E7
:100C0000E0916C01F0916D01808181508083882397
:100C1000BCF4E0916C01F0916D011082E0916C01E7
:100C2000F0916D011182E0916C01F0916D011282E1
:100C30001382148215821092700088E08093A401C0
:100C4000FF91EF918F910F900FBE0F901F9018950D
:100C5000F89448E050E060E070E08FE891E00E9496
:100C6000A20642E050E060E071E086E791E00E9479
:100C7000A20678940895F89448E050E060E070E0AF
:100C80008FE891E00E94920642E050E060E071E05F
:100C900086E791E00E9492067894089584B1866078
:100CA00084B982EB809380008AE18093810080E0A8
:100CB00091E0909389008093880090938B008093BB
:100CC0008A001092A50108958091A501882321F042
:100CD00081508093A501089510928100089520E02D
:100CE00034E0309387002093860093E001C0990F91
:100CF0008A95EAF79093A5018AE18093810008958F
:100D0000991B79E004C0991F961708F0961B881F5D
:100D10007A95C9F780950895EE0FFF1F0590F4911D
:100D2000E02D0994DC01CB01FC01F999FECF06C04E
:100D3000F2BDE1BDF89A319600B40D924150504099
:100D4000B8F70895DC01A40FB51F4150504048F09A
:100D5000CB01840F951F2E910E94B3064150504045
:100D6000D0F70895262FF999FECF92BD81BDF89A4C
:100D7000019700B4021639F01FBA20BD0FB6F894DF
:0C0D8000FA9AF99A0FBE0895F894FFCF7C
:100D8C00017E306D79335B5F707F73771F4E3D4F03
:100D9C00475E374438570E55151D6773055A0F1C9F
:100DAC002A2B493B6C65003C204F46460020204FC7
:100DBC004E00534D504C00494E43520044454C207C
:100DCC000042524F4E004D4F44450044454C2000CC
:0A0DDC004252542000534E44200000
:00000001FF
