:100000000C9434000C9422020C9479020C9451004C
:100010000C9451000C9451000C9451000C9451001C
:100020000C9451000C94D0020C9451000C9451008B
:100030000C9451000C9451000C948F000C945100BE
:100040000C9451000C9451000C9451000C945100EC
:100050000C9451000C9451000C9451000C945100DC
:100060000C9451000C94510011241FBECFEFD8E026
:10007000DEBFCDBF11E0A0E0B1E0E0E6F6E002C0F7
:1000800005900D92A031B107D9F721E0A0E1B1E0D0
:1000900001C01D92A535B207E1F70E947C010C94C6
:1000A0002E030C9400008EBD0DB407FEFDCF089505
:1000B00084B18C6284B92A9A82E58CBD82E084BDC9
:1000C00094E095BD80936E0080E487BD2A988CE013
:1000D0000E94530081E00E9453002A9A2A988BE0E4
:1000E0000E94530087E00E9453002A9A2A988AE0CF
:1000F0000E9453008BE00E9453002A9A2A9889E0BC
:100100000E9453008FEF0E9453002A9A2A988FE092
:100110000E94530080E00E9453002A9A08951F9283
:100120000F920FB60F9211242F933F934F935F932B
:100130006F937F938F939F93AF93BF93CF93EF93DF
:10014000FF932A98C091100181E08C0F0E94530008
:10015000EC2FF0E0ED5EFE4F80810E9453002A9A62
:10016000809110018F5F877080931001FF91EF9154
:10017000CF91BF91AF919F918F917F916F915F913F
:100180004F913F912F910F900FBE0F901F90189598
:1001900080911B0180931C0196B190931B018927CC
:1001A000292F2095282320931D01892380931E0148
:1001B00008958AE08093690083E08DBB8BB18C60E9
:1001C0008BB988B18F6188B90E94C8000E94C800AD
:1001D000089580E28093B600E1EBF0E080818160D9
:1001E0008083E6EBF0E0808180FDFDCF81E087BB7E
:1001F00008950F931F93CF93DF93CDB7DEB7279763
:100200000FB6F894DEBF0FBECDBFFC0109831A8381
:100210002B833C834D835E836F839181812F890F74
:10022000818381818A3024F0118282818F5F828371
:1002300092818B81890F82838281863024F01282A1
:1002400083818F5F838393818C81890F83838381F3
:100250008A3024F0138284818F5F848394818D811E
:10026000890F84838481863024F0148285818F5F96
:10027000858395818E81890F858385818A3024F0DD
:10028000158286818F5F868396818F81890F868311
:1002900086818A3014F089E0858327960FB6F8941A
:1002A000DEBF0FBECDBFDF91CF911F910F9108959B
:1002B00087E0E6E4F1E0AFE3B1E001900D928A95CA
:1002C000E1F787E0E6E4F1E0A0E3B1E001900D9210
:1002D0008A95E1F787E0E6E4F1E0A7E2B1E001907A
:1002E0000D928A95E1F71092200110921F01109251
:1002F00023011092220108958FE391E090932F0142
:1003000080932E018FE191E0909326018093250147
:1003100084B1836084B92998289A8FE0E0E0F1E005
:10032000A6E4B1E001900D928A95E1F70E94580190
:100330000E9458000E94E9000E94D90078940F2E74
:10034000F0E7EF2EF12CF02D0F2EF3E08F2EF02D95
:10035000992493946894AA24A1F80F2EFFE3CF2E3A
:10036000F1E0DF2EF02DC3E1D1E000E311E00F2E2C
:10037000FFE0BF2EF02D0E94C8008091370182302F
:10038000D9F028F4882341F0813079F02FC08330F0
:10039000E1F0843019F12AC080911D0182FF26C04E
:1003A000F7019082A092370121C080911D0182FF48
:1003B0001DC0109237011AC080911D0182FF16C026
:1003C000F70110828092370111C080911D0182FFD8
:1003D0000DC0F7019082A092370108C080911D01E5
:1003E00082FF04C00E94580110923701F6019481E7
:1003F00080911201982B98839381982B99839281F5
:10040000982B9A839181982B9B83F8019481982B48
:100410009C839381982B9D839281982B9E839181BD
:10042000982B9F83909111019F3128F01092110118
:100430008B25809312018FE295E70197F1F700C0B9
:10044000000099CF1F920F920FB60F9211240F93B5
:100450001F932F933F934F935F936F937F938F934C
:100460009F93AF93BF93EF93FF93809137018230B7
:1004700029F580912E0190912F018F539140F1F435
:1004800080914D01813019F0833079F017C0EEE48E
:10049000F1E000811181228133814481558166819F
:1004A0008FE391E00E94F90009C087E0E0E3F1E00A
:1004B000A7E2B1E001900D928A95E1F780E391E027
:1004C00090932F0180932E01289A2998FF91EF9104
:1004D000BF91AF919F918F917F916F915F914F915C
:1004E0003F912F911F910F910F900FBE0F901F9072
:1004F00018951F920F920FB60F9211240F931F930E
:100500002F933F934F935F936F937F938F939F931B
:10051000AF93BF93EF93FF9380913701823029F51A
:1005200080912E0190912F0180539140F1F48091A0
:100530004D01813019F0833079F017C0EEE4F1E01D
:10054000008111812281338144815581668180E35C
:1005500091E00E94F90009C087E0EFE3F1E0A7E233
:10056000B1E001900D928A95E1F78FE391E09093CD
:100570002F0180932E01299A2898FF91EF91BF9126
:10058000AF919F918F917F916F915F914F913F912B
:100590002F911F910F910F900FBE0F901F901895E4
:1005A0001F920F920FB60F9211248F93EF93FF9328
:1005B000E0912E01F0912F0180818F5F808388234D
:1005C0000CF044C0E0912E01F0912F011082E091D7
:1005D0002E01F0912F018181815081838823B4F510
:1005E000E0912E01F0912F0189E08183E0912E01AD
:1005F000F0912F0182818150828388233CF585E030
:100600008283838181508383882304F589E08383F7
:100610008481815084838823CCF485E08483858120
:1006200081508583882394F489E085838681815075
:10063000868388235CF416821582148213821282C8
:1006400011821092700084E080933701FF91EF9146
:100650008F910F900FBE0F901F901895F894FFCFB9
:100660000000000500000001000300000000000081
:00000001FF
