S01200006368657373636C6F636B2E73726563F0
S11300000C943D000C945D040C94A2040C945A00CE
S11300100C945A000C945A000C945A000C945A00F4
S11300200C945A000C94E7040C945A000C945A0053
S11300300C945A000C945A000C94B4010C945A0079
S11300400C945A000C945A000C945A000C945A00C4
S11300500C945A000C945A000C945A000C945A00B4
S11300600C945A000C945A009703D903F603130412
S11300702D03110330043C04510411241FBECFEF9F
S1130080D8E0DEBFCDBF11E0A0E0B1E0E6E8FBE0E0
S113009002C005900D92A035B107D9F721E0A0E583
S11300A0B1E001C01D92A03AB207E1F70E94AF028D
S11300B00C94C1050C9400008EBD0DB407FEFDCF59
S11300C0089584B18D6284B9289A82E58CBD559ACD
S11300D083E284BD8CE085BD82E080936E0080E382
S11300E087BD8AE088BD28988CE00E945C0081E08E
S11300F00E945C00289A28988BE00E945C0087E0AC
S11301000E945C00289A28988AE00E945C008BE098
S11301100E945C00289A289889E00E945C0080E094
S11301200E945C00289A28988FE00E945C0080E07E
S11301300E945C00289A80E090E0FC01E65AFE4FA1
S11301401082FC01EE5AFE4F108201968830910510
S1130150A1F7089580916E018F5F853118F4809323
S11301606E01089510926E0180E090E0FC01E65A61
S1130170FE4F208120952083019688309105B1F7A8
S1130180089590910001992319F092E09093000151
S11301902091000130E0F901E358FE4F9081911164
S11301A003C081117CC013C0F901E358FE4FE08104
S11301B00E2E000CFF0BEF5FFE4F908190937501A4
S11301C0F901EB59FE4F9081992351F00BC0109225
S11301D07501F901EB59FE4F8081882381F002C03B
S11301E0882369F0F901EB59FE4FE0810E2E000CD3
S11301F0FF0BEF5FFE4F80818093790102C0109264
S11302007901A9014F5F5F4FFA01E358FE4FE08186
S11302100E2E000CFF0BEF5FFE4F80818068E5E738
S1130220F1E08183C9010296DC01A358BE4FAC9171
S11302300A2E000CBB0BAF5FBE4F6C9162832D5F27
S11302403F4FD901A358BE4FAC910A2E000CBB0BF3
S1130250AF5FBE4F6C916383DA01AB59BE4FAC9173
S11302600A2E000CBB0BAF5FBE4F4C914068458318
S1130270DC01AB59BE4FAC910A2E000CBB0BAF5F37
S1130280BE4F8C918683D901AB59BE4FAC910A2ED7
S1130290000CBB0BAF5FBE4F8C9187830895F901AF
S11302A0E358FE4FE0810E2E000CFF0BEF5FFE4F74
S11302B0808180937501F901EB59FE4F808192CFC3
S11302C09FEB980F9A3118F4E9ECE80F14C08032D0
S11302D079F09FE9980F9A3118F4E9EAE80F0BC016
S11302E0E0EDE80FEA3038F08F3321F0E5E203C0A7
S11302F0E5E201C0E4E270E0F0E0EF5FFE4F8081F0
S1130300FB01EB58FE4F80830895EF92FF920F9309
S11303101F93CF93DF938C01C62FD42F6417E8F477
S1130320E62EF12CFC018081882379F06C2F0E9449
S11303306001CF5FCD1788F4EC2FF0E0EE19FF09D0
S1130340E00FF11F80818111F1CFEC2FF0E0EB5829
S1130350FE4F1082CF5FCD17C0F3DF91CF911F9175
S11303600F91FF90EF9008951F920F920FB60F9286
S113037011242F933F934F935F936F937F938F93A6
S11303809F93AF93BF93CF93EF93FF932898C0911C
S1130390500181E08C0F0E945C002C2F30E0F901A9
S11303A0EB58FE4F4081F901EE5AFE4F8081F9016E
S11303B0E65AFE4F90818923809584230E945C0035
S11303C0289A809150018F5F877080935001FF912C
S11303D0EF91CF91BF91AF919F918F917F916F9149
S11303E05F914F913F912F910F900FBE0F901F90EF
S11303F01895809192018093930196B19093920104
S11304008927292F209528232093940189238093D9
S1130410960192FD08C0809195018C3330F48F5F72
S11304208093950108951092950108958AE0809330
S1130430690083E08DBB8BB18C608BB988B18F610F
S113044088B90E94F9010E94F901089580E280931D
S1130450B600E1EBF0E0808181608083E6EBF0E0C0
S1130460808180FDFDCF81E087BB0895FC01DB0125
S1130470958115968C911597890F858385818A308E
S113048034F085818A50858384818F5F848394814D
S113049014968C911497890F84838481863034F068
S11304A084818650848383818F5F838393811396B1
S11304B08C911397890F838383818A3034F08381ED
S11304C08A50838382818F5F8283928112968C917A
S11304D01297890F82838281863034F0828186501C
S11304E0828381818F5F8183918111968C91119791
S11304F0890F818381818A3034F081818A5081839C
S113050080818F5F808390818C91890F808380812B
S11305108A3034F01082118212821382148215827E
S11305200895E5E8F1E080E090E02191DC01A35832
S1130530BE4F2C93DC01AB59BE4F2C9301968630F1
S1130540910599F710926B01109264011092980131
S11305501092970110929B0110929A0108958BE6D4
S113056091E090938401809383018DE791E09093CF
S113057063018093620187E991E090939E018093E7
S11305809D0185E080939F018AB1806C8AB95F9850
S11305905E9A0E9465050E9491020E9461000E9479
S11305A016020E9426020E9478057894D5E0B09045
S11305B0270100E710E0C1E00F2EF6E09F2EF02D9A
S11305C00F2EF7E08F2EF02D0F2EF3E06F2EF02D6F
S11305D06894772471F80F2EF5E8EF2EF1E0FF2EE2
S11305E0F02D0F2EF9E05F2EF02DAA24AA940F2EE1
S11305F0F2E5CF2EF1E0DF2EF02D8FE295E70197A3
S1130600F1F700C000000E94F9010E94AA00E091E5
S11306109F01F0E0E930F10580F7EC5CFF4F0C94AA
S113062089058091940182FF05C0F801C0839092EE
S11306309F010FC080FF03C010929F010AC081FF79
S113064008C010925101F601A082A48284E0809334
S11306509F0180E00E94C100D0CF8091940182FF6D
S113066010C08091510190E0FC01EE5AFE4F1082BF
S1130670FC01EA5AFE4F10820E945205D0939F015A
S113068052C081FF1AC080915101282F30E0F90136
S1130690EE5AFE4F1082F901EA5AFE4F10828F5F24
S11306A083708093510190E0FC01EE5AFE4FA082CA
S11306B0FC01EA5AFE4FA08236C0982F987199F136
S11306C09091510190FF02C0452D01C04D2F84FF30
S11306D011C0E92FF0E0E158FE4F20812F5F208305
S11306E0622F022E000C770B50E04617570764F474
S11306F020E00AC0E92FF0E0E158FE4F20812150AC
S1130700208322230CF4242F892F90E00296FC01ED
S1130710EB57FE4F2083FC01E358FE4F2083FC017E
S1130720EB59FE4F20838C2F0E94C10066CF80912D
S1130730940182FF05C00E945205D0939F0118C006
S113074080FF03C0C0939F0113C0982F987181F05C
S113075084FF0AC0F70186818F5F853010F4868399
S113076007C0F701168204C0F70186818150868391
S113077080919F0190E09C01220F331F220F331FB1
S1130780820F931F44E060E0845C9E4F0E948501C9
S1130790F701868190E09C01220F331F220F331F43
S11307A0820F931F48E064E0885D9E4F0E9485019C
S11307B024CF8091940182FF05C00E945205D093FA
S11307C09F0103C080FD70929F0180919F0190E082
S11307D09C01220F331F220F331F820F931F44E00B
S11307E060E0845C9E4F0E94850107CF8091940154
S11307F082FF05C00E945205D0939F0103C080FD73
S113080060929F0180919F0190E09C01220F331F11
S1130810220F331F820F931F44E060E0845C9E4FDD
S11308200E948501EACE8091940182FF05C00E9456
S11308305205D0939F0103C080FD10929F018091C7
S11308409F0190E09C01220F331F220F331F820F60
S1130850931F44E060E0845C9E4F0E948501CDCEEE
S11308608091940182FF04C0F801108280929F015C
S113087080E00E94C100C1CE809195018B1528F0C3
S11308800E949102D0939F0108C08091940182FF3D
S113089004C0F801C08390929F0180E00E94C100CF
S11308A0ACCE8091940182FF04C00E949102D09347
S11308B09F0180E00E94C100A0CE1F920F920FB64C
S11308C00F9211242F933F934F935F936F937F93D2
S11308D08F939F93AF93BF93EF93FF9380919F0167
S11308E0863089F480916201909163018D57914023
S11308F051F480918B01813031F46CE871E08DE723
S113090091E00E94360285E691E090936301809322
S1130910620184E691E090938401809383015F9A5D
S11309205E98FF91EF91BF91AF919F918F917F91CD
S11309306F915F914F913F912F910F900FBE0F9048
S11309401F9018951F920F920FB60F9211242F9398
S11309503F934F935F936F937F938F939F93AF9343
S1130960BF93EF93FF9380919F01863089F4809128
S11309706201909163018556914051F480918B01FD
S1130980813031F46CE871E085E691E00E94360232
S11309908DE791E090936301809362018BE691E08F
S11309A090938401809383015E9A5F98FF91EF9105
S11309B0BF91AF919F918F917F916F915F914F9173
S11309C03F912F910F900FBE0F901F9018951F927B
S11309D00F920FB60F9211248F93EF93FF93E09130
S11309E08301F091840180818F5F808388230CF0E0
S11309F051C0E0918301F09184011082E091620181
S1130A00F091630185818150858388230CF042C075
S1130A1089E085838481815084838823DCF585E0A3
S1130A2084838381815083838823A4F589E083832D
S1130A3082818150828388236CF585E08283818161
S1130A4081508183882334F5E0916201F091630140
S1130A5089E08183E0916201F0916301808181509A
S1130A6080838823BCF4E0916201F09163011082D9
S1130A70E0916201F09163011182E0916201F091D1
S1130A80630112821382148215821092700088E02E
S1130A9080939F01FF91EF918F910F900FBE0F9064
S1130AA01F901895F8944DE050E060E070E085E800
S1130AB091E00E949F0542E050E060E071E08CE626
S1130AC091E00E949F0578940895F8944DE050E0D9
S1130AD060E070E085E891E00E948F0542E050E01C
S1130AE060E071E08CE691E00E948F0578940895AF
S1130AF084B1866084B981EB809380008FE190E0BB
S1130B00909389008093880090938B0080938A004F
S1130B100895EE0FFF1F0590F491E02D0994DC0178
S1130B20CB01FC01F999FECF06C0F2BDE1BDF89AF4
S1130B30319600B40D9241505040B8F70895DC014D
S1130B40A40FB51F4150504048F0CB01840F951FAE
S1130B502E910E94B00541505040D0F70895262FA1
S1130B60F999FECF92BD81BDF89A019700B402169F
S1130B7039F01FBA20BD0FB6F894FA9AF99A0FBE4D
S1090B800895F894FFCF74
S1130B86017E306D79335B5F707F73771F4E3D4F07
S1130B96475E374438570E55151D6773055A0F1CA3
S1130BA62A2B493B6C65003C53494D5000494E4342
S1130BB6520044454C200042524F4E004D4F44458E
S1130BC60044454C20004252542000534E44200019
S9030000FC
