:100000000C943B000C94E5020C943C030C945800B7
:100010000C9458000C9458000C9458000C94580000
:100020000C9458000C9481030C9458000C945800C4
:100030000C9458000C9458000C94BC000C9458007C
:100040000C9458000C9458000C9458000C945800D0
:100050000C9458000C9458000C9458000C945800C0
:100060000C9458000C94580024023802A102AF02EC
:10007000BD02C702DA0211241FBECFEFD8E0DEBFF7
:10008000CDBF11E0A0E0B1E0E8E7F8E002C00590E4
:100090000D92A230B107D9F721E0A2E0B1E001C092
:1000A0001D92A035B207E1F70E94D0010C943A04EA
:1000B0000C9400008EBD0DB407FEFDCF089584B1F1
:1000C0008C6284B92A9A82E58CBD82E084BD94E07A
:1000D00095BD80936E0080E487BD2A988CE00E94D5
:1000E0005A0081E00E945A002A9A2A988BE00E94C6
:1000F0005A0087E00E945A002A9A2A988AE00E94B1
:100100005A008BE00E945A002A9A2A9889E00E949D
:100110005A008FEF0E945A002A9A2A988FE00E9474
:100120005A0080E00E945A002A9A80E090E0FC0188
:10013000E45FFE4F1082FC01EC5FFE4F10820196DF
:1001400088309105A1F70895809114018F5F89315E
:1001500018F48093140108951092140180E090E047
:100160003FE7FC01E45FFE4F2081232720830196B7
:1001700088309105B1F708951F920F920FB60F9234
:1001800011242F933F934F935F936F937F938F939C
:100190009F93AF93BF93CF93EF93FF932A98C09110
:1001A000020181E08C0F0E945A002C2F30E0F901EF
:1001B000EB5EFE4F4081F901EC5FFE4F8081F9015B
:1001C000E45FFE4F90818923842B0E945A002A9A73
:1001D000809102018F5F877080930201FF91EF9100
:1001E000CF91BF91AF919F918F917F916F915F91CF
:1001F0004F913F912F910F900FBE0F901F90189528
:1002000080911D0180931E0196B190931D01892755
:10021000292F2095282320931F01892380932101D2
:1002200092FD08C0809120018C3330F48F5F809361
:10023000200108951092200108958AE080936900BA
:1002400083E08DBB8BB18C608BB988B18F6188B92D
:100250000E9400010E940001089580E28093B60090
:10026000E1EBF0E0808181608083E6EBF0E080816B
:1002700080FDFDCF81E087BB0895FC01DB01958106
:1002800015968C911597890F858385818A3034F076
:1002900085818A50858384818F5F848394811496BD
:1002A0008C911497890F84838481863034F0848103
:1002B0008650848383818F5F8383938113968C918F
:1002C0001397890F838383818A3034F083818A5026
:1002D000838382818F5F8283928112968C911297A1
:1002E000890F82838281863034F0828186508283B6
:1002F00081818F5F8183918111968C911197890FF4
:10030000818381818A3034F081818A508183808128
:100310008F5F808390818C91890F808380818A3068
:1003200034F0108211821282138214821582089591
:10033000E3E4F1E080E090E02191DC01A55CBE4FB8
:100340002C93DC01A35DBE4F2C9301968630910562
:1003500099F71092340110922C01109223011092FF
:1003600022011092260110922501089580E090E06C
:100370009C012E5F3F4FF901E55CFE4F4081FC017F
:10038000EB5EFE4F4083F901E35DFE4F2081FC01EF
:10039000E75EFE4F208301968430910549F708956A
:1003A00084E391E090934201809341018BE391E0DB
:1003B00090932B0180932A0182E291E0909329018E
:1003C000809328018AB183608AB95998589A0E940B
:1003D000F7030E9498010E945F000E941D010E9485
:1003E0002D017894D0900001C0E7D0E0EE24E39492
:1003F0006894CC24C2F80F2EF5E0BF2EF02D68943F
:10040000992491F80F2EF3E0AF2EF02D0F2EF9E086
:100410008F2EF02DFF24FA9404E011E08FE295E78F
:100420000197F1F700C000000E9400010E94A400A3
:10043000E09133018E2F90E08730910578F7FC0131
:10044000EC5CFF4F0C94020480911F0182FF04C0FA
:10045000E882C092330109C081FF07C010920301F6
:10046000F801F082F482E09233010E94B601D6CF07
:1004700080911F0182FF10C08091030190E0FC0178
:10048000EC5FFE4F1082FC01E85FFE4F10820E947D
:10049000EC031092330152C081FF1AC08091030116
:1004A000282F30E0F901EC5FFE4F1082F901E85F80
:1004B000FE4F10828F5F83708093030190E0FC01F8
:1004C000EC5FFE4FF082FC01E85FFE4FF08236C029
:1004D000982F987199F19091030190FF02C0282DF7
:1004E00001C02B2D84FF11C0E92FF0E0E35CFE4F2B
:1004F00060816F5F6083462F062E000C550B30E045
:100500002417350764F460E00AC0E92FF0E0E35CEB
:10051000FE4F60816150608366230CF4622F892F47
:1005200090E00296FC01ED5BFE4F6083FC01E55C10
:10053000FE4F6083FC01E35DFE4F60830E94B601C5
:100540006DCF80911F0182FF05C00E94EC031092C5
:10055000330164CF80FF62CFA09233015FCF8091DF
:100560001F0182FF05C00E94EC031092330156CF99
:1005700080FF54CF9092330151CF80911F0182FFB1
:1005800003C01882B09233010E94B60147CF809118
:1005900020018D1528F00E9498011092330107C0A8
:1005A00080911F0182FF03C0E882C09233010E9444
:1005B000B60134CF80911F0182FF04C00E949801D0
:1005C000109233010E94B60129CF1F920F920FB6ED
:1005D0000F9211242F933F934F935F936F937F93C9
:1005E0008F939F93AF93BF93EF93FF9380913301CA
:1005F000843019F580912A0190912B018B53914001
:10060000E1F480914901813019F0833041F015C047
:100610006AE471E08BE391E00E943D010EC080E04E
:1006200090E0FC01E35DFE4F2081FC01EB5CFE4F9E
:100630002083019686309105A1F78DE291E0909399
:100640002B0180932A018CE291E0909342018093E8
:100650004101599A5898FF91EF91BF91AF919F91A5
:100660008F917F916F915F914F913F912F910F905B
:100670000FBE0F901F9018951F920F920FB60F92FA
:1006800011242F933F934F935F936F937F938F9397
:100690009F93AF93BF93EF93FF9380913301843087
:1006A00089F480912A0190912B018D52914051F44F
:1006B00080914901813031F46AE471E08DE291E08A
:1006C0000E943D018BE391E090932B0180932A01DE
:1006D00084E391E09093420180934101589A5998A4
:1006E000FF91EF91BF91AF919F918F917F916F910A
:1006F0005F914F913F912F910F900FBE0F901F90E0
:1007000018951F920F920FB60F9211248F93EF93AB
:10071000FF93E0914101F091420180818F5F8083DE
:1007200088230CF051C0E0914101F0914201108208
:10073000E0912A01F0912B018581815085838823E6
:100740000CF042C089E085838481815084838823B2
:10075000DCF585E084838381815083838823A4F53D
:1007600089E0838382818150828388236CF585E0D0
:100770008283818181508183882334F5E0912A012D
:10078000F0912B0189E08183E0912A01F0912B0106
:100790008081815080838823BCF4E0912A01F0910C
:1007A0002B011082E0912A01F0912B011182E0913E
:1007B0002A01F0912B011282138214821582109269
:1007C000700086E080933301FF91EF918F910F903D
:1007D0000FBE0F901F901895F8944DE050E060E028
:1007E00070E083E491E00E94180478940895F894EE
:1007F0004DE050E060E070E083E491E00E94080486
:1008000078940895EE0FFF1F0590F491E02D099460
:10081000DC01CB01FC01F999FECF06C0F2BDE1BDC0
:10082000F89A319600B40D9241505040B8F70895AF
:10083000DC01A40FB51F4150504048F0CB01840F9C
:10084000951F2E910E94290441505040D0F70895E1
:10085000262FF999FECF92BD81BDF89A019700B479
:10086000021639F01FBA20BD0FB6F894FA9AF99A19
:080870000FBE0895F894FFCFBC
:020878003C0042
:00000001FF
