:100000000C9434000C94C3020C941A030C94510009
:100010000C9451000C9451000C9451000C9451001C
:100020000C9451000C945F030C9451000C945100FB
:100030000C9451000C9451000C94B5000C94510098
:100040000C9451000C9451000C9451000C945100EC
:100050000C9451000C9451000C9451000C945100DC
:100060000C9451000C94510011241FBECFEFD8E026
:10007000DEBFCDBF11E0A0E0B1E0EEEAF7E002C0E4
:1000800005900D92AE30B107D9F721E0AEE0B1E0B6
:1000900001C01D92AB35B207E1F70E94BD010C947F
:1000A000D5030C9400008EBD0DB407FEFDCF08955E
:1000B00084B18C6284B92A9A82E58CBD82E084BDC9
:1000C00094E095BD80936E0080E487BD2A988CE013
:1000D0000E94530081E00E9453002A9A2A988BE0E4
:1000E0000E94530087E00E9453002A9A2A988AE0CF
:1000F0000E9453008BE00E9453002A9A2A9889E0BC
:100100000E9453008FEF0E9453002A9A2A988FE092
:100110000E94530080E00E9453002A9A80E090E001
:10012000FC01E75EFE4F1082FC01EF5EFE4F108285
:10013000019688309105A1F7089580910F018F5F96
:10014000893118F480930F01089510920F0180E017
:1001500090E03FE7FC01E75EFE4F208123272083EC
:10016000019688309105B1F708951F920F920FB64E
:100170000F9211242F933F934F935F936F937F932D
:100180008F939F93AF93BF93CF93EF93FF932A984F
:10019000C0910E0181E08C0F0E9453002C2F30E0A3
:1001A000F901EF5DFE4F4081F901EF5EFE4F808166
:1001B000F901E75EFE4F90818923842B0E94530052
:1001C0002A9A80910E018F5F877080930E01FF91B4
:1001D000EF91CF91BF91AF919F918F917F916F914F
:1001E0005F914F913F912F910F900FBE0F901F90F5
:1001F00018958091290180932A0196B19093290145
:100200008927292F2095282320932B018923809348
:100210002C0108958AE08093690083E08DBB8BB147
:100220008C608BB988B18F6188B90E94F9000E94F7
:10023000F900089580E28093B600E1EBF0E0808160
:1002400081608083E6EBF0E0808180FDFDCF81E07E
:1002500087BB0895FC01DB01958115968C9115975C
:10026000890F858385818A3034F085818A50858322
:1002700084818F5F8483948114968C911497890F65
:1002800084838481863034F08481865084838381A2
:100290008F5F8383938113968C911397890F838348
:1002A00083818A3034F083818A50838382818F5F97
:1002B0008283928112968C911297890F8283828118
:1002C000863034F082818650828381818F5F818382
:1002D000918111968C911197890F818381818A3048
:1002E00034F081818A50818380818F5F8083908107
:1002F0008C91890F808380818A3034F01082118242
:1003000012821382148215820895EEE4F1E080E0F7
:1003100090E02191DC01AA5BBE4F2C93DC01A85C2C
:10032000BE4F2C9301968630910599F710923F01AC
:100330001092370110922E0110922D01109231016E
:1003400010923001089580E090E09C012E5F3F4FB5
:10035000F901EA5BFE4F4081FC01EF5DFE4F4083F7
:10036000F901E85CFE4F2081FC01EB5DFE4F20832C
:1003700001968430910549F708958FE391E09093B9
:100380004D0180934C0186E491E090933601809377
:1003900035018DE291E090933401809333018AB16D
:1003A00083608AB95998589A8DE0E0E0F1E0AEE4B4
:1003B000B1E001900D928A95E1F70E9485010E94BB
:1003C00058000E940A010E94CA030E941A017894F0
:1003D000C0E7D0E0FF24F3940F2EF3E0EF2EF02DD2
:1003E0006894CC24C2F801E111E0DD24DA940F2EE8
:1003F000F5E0AF2EF02D0F2EF9E0BF2EF02D0E946C
:10040000F90080913E01823009F48FC028F48823DE
:1004100061F08130F1F0AEC0843009F497C008F487
:100420008BC0853009F49CC0A5C080912B0182FF50
:1004300004C0F882E0923E0109C081FF07C010921B
:100440001001F801D082D482F0923E010E94A301F3
:1004500091C080912B0182FF0EC08091100190E02D
:10046000FC01EF5EFE4F1082FC01EB5EFE4F10823E
:1004700010923E017FC081FF1AC080911001282F89
:1004800030E0F901EF5EFE4F1082F901EB5EFE4FA6
:1004900010828F5F83708093100190E0FC01EF5E0B
:1004A000FE4FD082FC01EB5EFE4FD08263C0982FDE
:1004B000987109F45FC09091100190FF02C04B2D1C
:1004C00001C04A2D84FF11C0E92FF0E0E85BFE4F28
:1004D00020812F5F2083622F022E000C770B50E0CB
:1004E0004617570764F420E00AC0E92FF0E0E85B04
:1004F000FE4F20812150208322230CF4242F892FAA
:1005000090E0AC014E5F5F4FFA01EA5BFE4F208343
:10051000FA01E85CFE4F2083FC01EF5DFE4F208373
:10052000FC01EB5DFE4F208325C080912B0182FFF3
:1005300021C010923E011EC080912B0182FF03C09A
:100540001882C0923E010E94A30114C080912B0129
:1005500082FF03C0F882E0923E010E94A3010AC01C
:1005600080912B0182FF04C00E94850110923E0100
:100570000E94A3010E949D008FE295E70197F1F789
:1005800000C000003CCF1F920F920FB60F921124B3
:100590002F933F934F935F936F937F938F939F938B
:1005A000AF93BF93EF93FF9380913E01833019F592
:1005B000809135019091360186549140E1F480910B
:1005C0005401813019F0833041F015C065E571E0C8
:1005D00086E491E00E942A010EC080E090E0FC01D8
:1005E000E85CFE4F2081FC01E05CFE4F2083019619
:1005F00086309105A1F788E391E0909336018093CE
:10060000350187E391E090934D0180934C01599A15
:100610005898FF91EF91BF91AF919F918F917F91EA
:100620006F915F914F913F912F910F900FBE0F905F
:100630001F9018951F920F920FB60F9211242F93AF
:100640003F934F935F936F937F938F939F93AF935A
:10065000BF93EF93FF9380913E01833089F48091A3
:100660003501909136018853914051F480915401A5
:10067000813031F465E571E088E391E00E942A0160
:1006800086E491E090933601809335018FE391E009
:1006900090934D0180934C01589A5998FF91EF9196
:1006A000BF91AF919F918F917F916F915F914F918A
:1006B0003F912F910F900FBE0F901F9018951F9292
:1006C0000F920FB60F9211248F93EF93FF93E09147
:1006D0004C01F0914D0180818F5F808388230CF065
:1006E00051C0E0914C01F0914D011082E091350133
:1006F000F091360185818150858388230CF042C0BA
:1007000089E085838481815084838823DCF585E0BA
:1007100084838381815083838823A4F589E0838344
:1007200082818150828388236CF585E08283818178
:1007300081508183882334F5E0913501F0913601B1
:1007400089E08183E0913501F0913601808181500B
:1007500080838823BCF4E0913501F091360110824A
:10076000E0913501F09136011182E0913501F0916F
:10077000360112821382148215821092700085E075
:1007800080933E01FF91EF918F910F900FBE0F90DC
:100790001F901895219A83E48093800087EE93E060
:0E07A00090938900809388000895F894FFCF0D
:0E07AE00000000030000010000000000020037
:00000001FF
