S01200006368657373636C6F636B2E73726563F0
S11300000C943B000C94F5020C944C030C94580093
S11300100C9458000C9458000C9458000C945800FC
S11300200C9458000C9491030C9458000C945800B0
S11300300C9458000C9458000C94E6000C9458004E
S11300400C9458000C9458000C9458000C945800CC
S11300500C9458000C9458000C9458000C945800BC
S11300600C9458000C94580034024802B102BF02A8
S1130070CD02D702EA0211241FBECFEFD8E0DEBFC3
S1130080CDBF11E0A0E0B1E0E8E9F8E002C00590DE
S11300900D92A632B107D9F721E0A6E2B1E001C082
S11300A01D92A437B207E1F70E94E0010C944A04C0
S11300B00C9400008EBD0DB407FEFDCF089584B1ED
S11300C08C6284B92A9A82E58CBD559A83E284BDF8
S11300D08CE085BD82E080936E0080E387BD8AE07A
S11300E088BD2A988CE00E945A0081E00E945A0040
S11300F02A9A2A988BE00E945A0087E00E945A00AC
S11301002A9A2A988AE00E945A008BE00E945A0098
S11301102A9A2A9889E00E945A0080E00E945A0094
S11301202A9A2A988FE00E945A0080E00E945A007E
S11301302A9A80E090E0FC01E05DFE4F1082FC0111
S1130140E85DFE4F1082019688309105A1F708956D
S1130150809142018F5F893118F4809342010895A0
S11301601092420180E090E03FE7FC01E05DFE4F29
S1130170208123272083019688309105B1F70895C3
S113018080E090E09C012E5F3F4FF901EF5AFE4F53
S1130190E0810E2E000CFF0BE050FF4F4081FC016C
S11301A0E75BFE4F4083F901E55CFE4FE0810E2ED4
S11301B0000CFF0BE050FF4F2081FC01E35BFE4F7E
S11301C02083019684309105E9F608951F920F92D9
S11301D00FB60F9211242F933F934F935F936F9316
S11301E07F938F939F93AF93BF93CF93EF93FF939B
S11301F02A98C091260181E08C0F0E945A002C2F6E
S113020030E0F901E75BFE4F4081F901E85DFE4F04
S11302108081F901E05DFE4F90818923842B0E9447
S11302205A002A9A809126018F5F87708093260155
S1130230FF91EF91CF91BF91AF919F918F917F915A
S11302406F915F914F913F912F910F900FBE0F903F
S11302501F901895809166018093670196B19093E1
S113026066018927292F2095282320936801892353
S113027080936A0192FD08C0809169018C3330F447
S11302808F5F8093690108951092690108958AE04F
S11302908093690083E08DBB8BB18C608BB988B18E
S11302A08F6188B90E942A010E942A01089580E280
S11302B08093B600E1EBF0E0808181608083E6EB1F
S11302C0F0E0808180FDFDCF81E087BB0895FC01D3
S11302D0DB01958115968C911597890F858385810E
S11302E08A3034F085818A50858384818F5F84834A
S11302F0948114968C911497890F84838481863019
S113030034F084818650848383818F5F83839381D7
S113031013968C911397890F838383818A3034F0E9
S113032083818A50838382818F5F82839281129634
S11303308C911297890F82838281863034F0828176
S11303408650828381818F5F8183918111968C9104
S11303501197890F818381818A3034F081818A5099
S1130360818380818F5F808390818C91890F8083CA
S113037080818A3034F010821182128213821482B6
S113038015820895E9E5F1E080E090E02191DC0137
S1130390AF5ABE4F2C93DC01A55CBE4F2C93019643
S11303A08630910599F71092410110923A0110920A
S11303B06C0110926B0110926F0110926E010895FE
S11303C081E491E0909358018093570181E591E095
S11303D090933901809338018BE691E090937201F8
S11303E0809371018AB183608AB95998589A0E949E
S11303F007040E94C2010E945F000E9447010E94FC
S113040057017894D0902501C0E7D0E0EE24E3941E
S11304106894CC24C2F80F2EF5E0BF2EF02D68941A
S1130420992491F80F2EF3E0AF2EF02D0F2EF9E062
S11304308F2EF02DFF24FA9408E211E08FE295E765
S11304400197F1F700C000000E942A010E94A80051
S1130450E09173018E2F90E08730910578F7FC01CD
S1130460EC5CFF4F0C9412048091680182FF04C07D
S1130470E882C092730109C081FF07C0109227016E
S1130480F801F082F482E09273010E94C000D6CF9A
S11304908091680182FF10C08091270190E0FC01E7
S11304A0E85DFE4F1082FC01E45DFE4F10820E9465
S11304B0FC031092730152C081FF1AC0809127017E
S11304C0282F30E0F901E85DFE4F1082F901E45D68
S11304D0FE4F10828F5F83708093270190E0FC01B0
S11304E0E85DFE4FF082FC01E45DFE4FF08236C011
S11304F0982F987199F19091270190FF02C0282DAF
S113050001C02B2D84FF11C0E92FF0E0ED5AFE4FFE
S113051060816F5F6083462F062E000C550B30E020
S11305202417350764F460E00AC0E92FF0E0ED5ABF
S1130530FE4F60816150608366230CF4622F892F23
S113054090E00296FC01E75AFE4F6083FC01EF5AEB
S1130550FE4F6083FC01E55CFE4F60830E94C00097
S11305606DCF8091680182FF05C00E94FC03109248
S1130570730164CF80FF62CFA09273015FCF80913B
S1130580680182FF05C00E94FC031092730156CFDC
S113059080FF54CF9092730151CF8091680182FF04
S11305A003C01882B09273010E94C00047CF8091AB
S11305B069018D1528F00E94C2011092730107C0D1
S11305C08091680182FF03C0E882C09273010E9497
S11305D0C00034CF8091680182FF04C00E94C20130
S11305E0109273010E94C00029CF1F920F920FB680
S11305F00F9211242F933F934F935F936F937F93A5
S11306008F939F93AF93BF93EF93FF938091730165
S1130610843019F5809138019091390181559140C8
S1130620E1F480915F01813019F0833041F015C00D
S113063060E671E081E591E00E9467010EC080E010
S113064090E0FC01E55CFE4F2081FC01ED5BFE4F78
S11306502083019686309105A1F78BE391E0909376
S11306603901809338018AE391E090935801809393
S11306705701599A5898FF91EF91BF91AF919F916B
S11306808F917F916F915F914F913F912F910F9037
S11306900FBE0F901F9018951F920F920FB60F92D6
S11306A011242F933F934F935F936F937F938F9373
S11306B09F93AF93BF93EF93FF9380917301843023
S11306C089F480913801909139018B53914051F410
S11306D080915F01813031F460E671E08BE391E059
S11306E00E94670181E591E090933901809338017C
S11306F081E491E09093580180935701589A599856
S1130700FF91EF91BF91AF919F918F917F916F91E5
S11307105F914F913F912F910F900FBE0F901F90BB
S113072018951F920F920FB60F9211248F93EF9387
S1130730FF93E0915701F091580180818F5F80838E
S113074088230CF051C0E0915701F09158011082B8
S1130750E0913801F09139018581815085838823A6
S11307600CF042C089E0858384818150848388238E
S1130770DCF585E084838381815083838823A4F519
S113078089E0838382818150828388236CF585E0AC
S11307908283818181508183882334F5E0913801FB
S11307A0F091390189E08183E0913801F0913901B8
S11307B08081815080838823BCF4E0913801F091DA
S11307C039011082E0913801F09139011182E091F0
S11307D03801F09139011282138214821582109229
S11307E0700086E080937301FF91EF918F910F90D9
S11307F00FBE0F901F901895F8944DE050E060E004
S113080070E089E591E00E94280478940895F894B2
S11308104DE050E060E070E089E591E00E9418044A
S113082078940895EE0FFF1F0590F491E02D09943C
S1130830DC01CB01FC01F999FECF06C0F2BDE1BD9C
S1130840F89A319600B40D9241505040B8F708958B
S1130850DC01A40FB51F4150504048F0CB01840F78
S1130860951F2E910E94390441505040D0F70895AD
S1130870262FF999FECF92BD81BDF89A019700B455
S1130880021639F01FBA20BD0FB6F894FA9AF99AF5
S10B08900FBE0895F894FFCF98
S11308987E306D79335B5F707F73771F4E3D4F47B2
S11308A85E374438570E55151D6773055A0F1C2AB1
S10908B82B493B6C653C7A
S9030000FC
