S01200006368657373636C6F636B2E73726563F0
S1130000A2C084C5C7C5BAC0B9C0B8C0B7C0B6C05D
S1130010B5C004C6B3C0B2C0B1C0B0C05EC2AEC049
S1130020ADC0ACC0ABC0AAC0A9C0A8C0A7C0A6C080
S1130030A5C0A4C02EC46CC4C3C4FAC4C2C3A4C3A0
S11300402BC537C54DC5FFFFFFFFFFFFFFFFFFFFB8
S1130050FFFFFFFFFFFFFFFFFFFFFFFF18FDE3EEC2
S11300607BE1D3D4E1C89BBDF6B2EBA8709F7D962B
S11300700B8E12868B7E7177BD70696A7064CD5E5B
S11300807B597554B74F3E4B05470843453FB83B32
S11300905E3834353732662FBD2C3A2ADB279E254D
S11300A082238421A21FDC1D2E1C991A1B19B2174E
S11300B05E161C15ED13CF12C011C110D10FED0E39
S11300C0170E4C0D8D0CD90B2E0B8E0AF6096709F1
S11300D0E0086008E80776070B07A6064606EC0565
S11300E097054605FB04B3046F043004F303BB0314
S11300F0850352032303F502CB02A3027D025902B6
S113010037021702F901DD01C201A90191017A0147
S1130110650151013E012C011B010B01FC00EE00A5
S1130120E000D400C800BD00B200A8009E00950005
S11301308D0085007E0076007000690063005E001B
S1130140580053004F0011241FBECFEFD4E0DEBF90
S1130150CDBF11E0A0E0B1E0EEE6FEE002C0059004
S11301600D92A236B107D9F721E0A2E6B1E001C0B1
S11301701D92A03BB207E1F7A2D277C641CF8EBD54
S11301800DB407FEFDCF089594B19D6294B9289AE9
S113019092E59CBD9AB190639AB95C9893E394BD3F
S11301A09CE095BD92E090936E0090E397BD880F1C
S11301B0880F88BD28988CE0E2DF81E0E0DF289A90
S11301C028988BE0DCDF87E0DADF289A28988AE039
S11301D0D6DF8FE0D4DF289A289889E0D0DF80E04A
S11301E0CEDF289A28988FE0CADF80E0C8DF289AFB
S11301F080E090E0FC01E459FE4F1082FC01EC59D0
S1130200FE4F1082019688309105A1F708958091E0
S113021080018F5F853118F48093800108951092D6
S1130220800180E090E0FC01E459FE4F208120959C
S11302302083019688309105B1F7089590910001CB
S1130240992319F092E0909300012091000130E08D
S1130250F901E157FE4F9081911103C081117CC0D7
S113026013C0F901E157FE4FE0810E2E000CFF0B85
S1130270EF5FFE4F908190938701F901E958FE4F9B
S11302809081992351F00BC010928701F901E9582C
S1130290FE4F8081882381F002C0882369F0F90130
S11302A0E958FE4FE0810E2E000CFF0BEF5FFE4F6E
S11302B0808180938B0102C010928B01A9014F5F52
S11302C05F4FFA01E157FE4FE0810E2E000CFF0B49
S11302D0EF5FFE4F80818068E7E8F1E08183C90128
S11302E00296DC01A157BE4FAC910A2E000CBB0B49
S11302F0AF5FBE4F6C9162832D5F3F4FD901A15711
S1130300BE4FAC910A2E000CBB0BAF5FBE4F6C917D
S11303106383DA01A958BE4FAC910A2E000CBB0BC3
S1130320AF5FBE4F4C9140684583DC01A958BE4F76
S1130330AC910A2E000CBB0BAF5FBE4F8C91868331
S1130340D901A958BE4FAC910A2E000CBB0BAF5F6C
S1130350BE4F8C9187830895F901E157FE4FE081E8
S11303600E2E000CFF0BEF5FFE4F80818093870100
S1130370F901E958FE4F808192CF9FEB980F9A3193
S113038018F4E9ECE80F14C0803279F09FE9980F73
S11303909A3118F4E9EAE80F0BC0E0EDE80FEA300F
S11303A038F08F3321F0E5E203C0E5E201C0E4E276
S11303B070E0F0E0EF5FFE4F8081FB01E957FE4FF4
S11303C080830895EF92FF920F931F93CF93DF934F
S11303D08C01C62FD42F6417E0F4E62EF12CFC0117
S11303E08081882371F06C2FC8DFCF5FCD1788F42C
S11303F0EC2FF0E0EE19FF09E00FF11F808181116D
S1130400F2CFEC2FF0E0E957FE4F1082CF5FCD170B
S1130410C0F3DF91CF911F910F91FF90EF9008955A
S1130420DF92EF92FF920F931F93CF93DF9300D04D
S11304301F92CDB7DEB7582F84E689838AE08A837A
S113044081E08B83E62FF0E0E957FE4F1082DE0156
S1130450119620E030E0D12C062F10E0FF24F39415
S11304600F2EFFE3EF2EF02D4D912F5F3F4F852F81
S1130470642FBED4811114C0D11002C0233041F4C2
S1130480C801820F931F89579E4FFC01E08217C059
S1130490C801820F931F89579E4FFC0110820FC021
S11304A0E82FF0E0EF5FFE4F9081F801E20FF31FB9
S11304B0E957FE4F9083489F50191124DF2C2330B5
S11304C0310591F60F900F900F90DF91CF911F910E
S11304D00F91FF90EF90DF9008951F920F920FB647
S11304E00F9211241F932F933F934F935F936F9316
S11304F07F938F939F93AF93BF93CF93DF93EF93A8
S1130500FF9320916201822F90E0FC01E957FE4F96
S1130510D081FC01EC59FE4F1081FC01E459FE4FDF
S1130520C081289881E090E002C0880F991F2A9525
S1130530E2F7809524DE812F8C2380958D231FDEA6
S1130540289A809162018F5F877080936201FF9186
S1130550EF91DF91CF91BF91AF919F918F917F9157
S11305606F915F914F913F912F911F910F900FBE0B
S11305700F901F90189580919F018093A00196B1D0
S113058090939F018927292F209528232093A10147
S113059089238093A30192FD08C08091A2018C332A
S11305A030F48F5F8093A20108951092A201089500
S11305B08AE08093690083E08DBB8BB18C608BB93A
S11305C088B18F6188B9D7DFD6DF089580E2809340
S11305D0B600E1EBF0E0808181608083E6EBF0E03F
S11305E0808180FDFDCF81E087BB0895FC0185817A
S11305F0680F658385818A304CF085818A508583B4
S113060084818F5F848385818A30BCF784818630BE
S11306104CF084818650848383818F5F83838481BB
S11306208630BCF783818A304CF083818A5083837F
S113063082818F5F828383818A30BCF78281863096
S11306404CF082818650828381818F5F8183828195
S11306508630BCF781818A304CF081818A50818355
S113066080818F5F808381818A30BCF780818A306A
S11306703CF089E0808381838283838384838583C0
S11306800895E7E9F1E080E090E02191DC01A157D1
S1130690BE4F2C93DC01A958BE4F2C930196863093
S11306A0910599F710927D01109276011092A5019F
S11306B01092A4011092A8011092A701089519D3D1
S11306C08DE791E090939601809395018FE891E0F6
S11306D0909375018093740184EA91E09093AB0147
S11306E08093AA0185E08093AC018AB1806C8AB9B9
S11306F05F985E9A2FD3C5DF80917E0145DD58DF78
S113070065DF39D378945C9ACEE7D1E00F2EF5E01B
S1130710BF2EF02D7090270100E710E0AA24A394C7
S11307200F2EF6E08F2EF02D0F2EF7E06F2EF02D0A
S11307300F2EF3E05F2EF02D0F2EF7E9EF2EF1E0F0
S1130740FF2EF02D0F2EF9E04F2EF02D99249A94C0
S11307500F2EF4E6CF2EF1E0DF2EF02D0CDF80918A
S1130760A1018F7129F08981882311F082E022D3BD
S1130770E091AC018E2F90E08930910508F0BDC165
S1130780FC01E65EFF4F09948091A10182FF05C040
S1130790F801A0828092AC01B0C184FF03C0109222
S11307A0AC01ABC183FF09C010926301F6019082D2
S11307B0948284E08093AC01A0C15C9A80E03EDD29
S11307C09CC19091A10192FF0FC08091630190E0C0
S11307D0FC01EC59FE4F1082FC01E859FE4F1082D7
S11307E0A8D2B092AC0189C193FF1AC08091630171
S11307F0282F30E0F901EC59FE4F1082F901E85935
S1130800FE4F10828F5F83708093630190E0FC0140
S1130810EC59FE4F9082FC01E859FE4F908235C09E
S1130820892F837091F18091630180FF02C0242D90
S113083001C02B2D90FF11C0E82FF0E0EF56FE4FC2
S113084060816F5F6083462F062E000C550B30E0ED
S11308502417350764F460E00AC0E82FF0E0EF568F
S1130860FE4F60816150608366230CF4622F90E038
S11308700296FC01E956FE4F6083FC01E157FE4FEE
S11308806083FC01E958FE4F60835C9A8A2DD6DCB4
S113089034C18091A10182FF04C04BD2B092AC015B
S11308A02CC184FF03C0A092AC0127C180FF0AC001
S11308B0F70186818F5F843010F4868309C0F701C5
S11308C0168206C081FF04C0F701868181508683A9
S11308D05C988091AC0190E09C01220F331F220FA1
S11308E0331F820F931F44E060E0825B9E4F6ADDFA
S11308F0F701868190E09C01220F331F220F331FE2
S1130900820F931F48E064E0865C9E4F5BDDF5C078
S11309108091A10182FF04C00CD2B092AC01EDC061
S113092084FF04C082E08093AC01E7C080FF19C05B
S1130930F7018781843118F48F5F87832CC08D324F
S113094020F48B5FF701878326C08C3320F4815F0A
S1130950F701878320C0843BF0F4825EF70187832C
S11309601AC081FF18C0F70187818D3318F08E51AA
S1130970878311C08E3220F08F50F70187830BC01C
S1130980853120F08550F701878305C0882319F04D
S11309908150F70187835C988091AC0190E09C01C1
S11309A0220F331F220F331F820F931F44E060E096
S11309B0825B9E4F07DD64E0F701878131DD9DC0D6
S11309C08091A10182FF04C0B4D1B092AC0195C062
S11309D084FF03C05092AC0190C080FF0AC088819C
S11309E08A3010F48F5F88838881880F880F88BDD0
S11309F00BC081FF09C08881823010F08150888348
S1130A008881880F880F88BD5C988091AC0190E044
S1130A109C01220F331F220F331F820F931F44E0C8
S1130A2060E0825B9E4FCEDC64E08881F9DC65C0C7
S1130A308091A10182FF04C07CD1B092AC015DC061
S1130A4084FF03C01092AC0158C0837031F08981D7
S1130A508F5F8170898382E0ADD15C988091AC0115
S1130A6090E09C01220F331F220F331F820F931F2C
S1130A7044E060E0825B9E4FA5DC898190E09C01AC
S1130A80220F331F220F331F820F931F48E064E0AD
S1130A90805D9E4F97DC31C08091A10182FF05C02B
S1130AA0F80110826092AC0128C05C9A80E0C6DB39
S1130AB024C08091A201871530F0E3DD8CE07AD167
S1130AC0B092AC011AC08091A10182FF05C0F80167
S1130AD0A0828092AC0111C05C9A80E0AFDB0DC0B3
S1130AE08091A10182FF06C0CCDD8CE063D1B0927D
S1130AF0AC0103C05C9A80E0A1DB89DB50D18FE2BA
S1130B0095E70197F1F700C0000028CE1F920F92DD
S1130B100FB60F9211242F933F934F935F936F93CC
S1130B207F938F939F93AF93BF93EF93FF938091A2
S1130B30AC01863081F480917401909175018F58D5
S1130B40914049F480919D01813029F460919E0186
S1130B508FE891E04BDD87E791E0909375018093F6
S1130B60740186E791E090939601809395015F9AD2
S1130B705E98FF91EF91BF91AF919F918F917F917B
S1130B806F915F914F913F912F910F900FBE0F90F6
S1130B901F9018951F920F920FB60F9211242F9346
S1130BA03F934F935F936F937F938F939F93AF93F1
S1130BB0BF93EF93FF938091AC01863081F48091D1
S1130BC07401909175018757914049F480919D017A
S1130BD0813029F460919E0187E791E007DD8FE879
S1130BE091E090937501809374018DE791E0909367
S1130BF09601809395015E9A5F98FF91EF91BF9162
S1130C00AF919F918F917F916F915F914F913F91A0
S1130C102F910F900FBE0F901F9018951F920F9257
S1130C200FB60F9211248F93EF93FF93E0919501E8
S1130C30F091960180818F5F808388230CF051C0EE
S1130C40E0919501F09196011082E0917401F09188
S1130C50750185818150858388230CF042C089E029
S1130C6085838481815084838823DCF585E08483B3
S1130C708381815083838823A4F589E083838281DF
S1130C808150828388236CF585E082838181815041
S1130C908183882334F5E0917401F091750189E032
S1130CA08183E0917401F09175018081815080838A
S1130CB08823BCF4E0917401F09175011082E091F5
S1130CC07401F09175011182E0917401F091750144
S1130CD012821382148215821092700088E080932D
S1130CE0AC01FF91EF918F910F900FBE0F901F9069
S1130CF0189588E0E8E2F1E0A7E9B1E001900D92EF
S1130D008A95E1F7EEE7F1E085E0808381E0818375
S1130D10F89448E050E060E070E087E991E084D026
S1130D2042E050E060E071E08EE791E07DD078949D
S1130D300895F89448E050E060E070E087E991E0BD
S1130D4073D042E050E060E071E08EE791E06CD057
S1130D5078940895F89448E050E060E070E087E902
S1130D6091E052D042E050E060E071E08EE791E023
S1130D704BD07894089584B1866084B982EB8093D3
S1130D8080008AE1809381001092AF01E6EDF0E0EB
S1130D90859194919093AE018093AD0108958091D3
S1130DA0AF01882321F081508093AF010895109200
S1130DB0810008952091AD013091AE0130938700F8
S1130DC0209386002091AD013091AE013695279590
S1130DD03695279530938B0020938A0030938900B1
S1130DE0209388008093AF018AE180938100089565
S1130DF0991B79E004C0991F961708F0961B881F69
S1130E007A95C9F780950895DC01CB01FC01F99925
S1130E10FECF06C0F2BDE1BDF89A319600B40D9242
S1130E2041505040B8F70895DC01A40FB51F41505C
S1130E30504040F0CB01840F951F2E9105D04150B6
S1130E405040D8F70895262FF999FECF92BD81BD61
S1130E50F89A019700B4021639F01FBA20BD0FB6F4
S1110E60F894FA9AF99A0FBE0895F894FFCF09
S1130E6E013F065B4F666D7D077F67777C395E7940
S1130E7E713D76110E753855545C7367502D781C80
S1130E8E2A6A496E1B53003C000000030000010255
S1130E9E204F46460020204F4E00534D504C0049E3
S1130EAE4E43520044454C200042524F4E004D4F8B
S1130EBE44450044454C20004252542000534E44B5
S1050ECE2000FE
S9030000FC
