S01200006368657373636C6F636B2E73726563F0
S11300000C9434000C941B020C9460020C94510068
S11300100C9451000C9451000C9451000C94510018
S11300200C9451000C94A5020C9451000C945100B2
S11300300C9451000C9451000C948F000C945100BA
S11300400C9451000C9451000C9451000C945100E8
S11300500C9451000C9451000C9451000C945100D8
S11300600C9451000C94510011241FBECFEFD8E022
S1130070DEBFCDBF11E0A0E0B1E0E4E2F6E002C0F3
S113008005900D92AE30B107D9F721E0AEE0B1E0B2
S113009001C01D92A135B207E1F70E9482010C94C0
S11300A010030C9400008EBD0DB407FEFDCF08951F
S11300B084B18C6284B92A9A82E58CBD82E084BDC5
S11300C094E095BD80936E0080E487BD2A988CE00F
S11300D00E94530081E00E9453002A9A2A988BE0E0
S11300E00E94530087E00E9453002A9A2A988AE0CB
S11300F00E9453008BE00E9453002A9A2A9889E0B8
S11301000E9453008FEF0E9453002A9A2A988FE08E
S11301100E94530080E00E9453002A9A08951F927F
S11301200F920FB60F9211242F933F934F935F9327
S11301306F937F938F939F93AF93BF93CF93EF93DB
S1130140FF932A98C0910E0181E08C0F0E94530006
S1130150EC2FF0E0EF5EFE4F80810E9453002A9A5C
S113016080910E018F5F877080930E01FF91EF9154
S1130170CF91BF91AF919F918F917F916F915F913B
S11301804F913F912F910F900FBE0F901F90189594
S11301908091190180931A0196B1909319018927CE
S11301A0292F2095282320931B01892380931C0148
S11301B008958AE08093690083E08DBB8BB18C60E5
S11301C08BB988B18F6188B90E94C8000E94C800A9
S11301D0089580E28093B600E1EBF0E080818160D5
S11301E08083E6EBF0E0808180FDFDCF81E087BB7A
S11301F00895FC01DB01958115968C911597890F63
S1130200858385818A3024F0158284818F5F84837D
S1130210948114968C911497890F848384818630F9
S113022024F0148283818F5F8383938113968C914E
S11302301397890F838383818A3024F01382828108
S11302408F5F8283928112968C911297890F828399
S11302508281863024F0128281818F5F8183918133
S113026011968C911197890F818381818A3024F0B2
S1130270118280818F5F808390818C91890F80832C
S113028080818A3034F010821182128213821482A7
S113029015820895E4E4F1E080E090E02191DC012E
S11302A0A45CBE4F2C93DC01A25DBE4F2C9301963F
S11302B08630910599F71092350110922D01109214
S11302C01E0110921D011092210110922001089527
S11302D080E090E09C012E5F3F4FF901E45CFE4F0B
S11302E04081FC01EF5EFE4F4083F901E25DFE4F69
S11302F02081FC01EB5EFE4F208301968430910542
S113030049F7089585E391E0909343018093420176
S11303108CE391E090932C0180932B018DE191E08B
S1130320909324018093230184B1836084B9299834
S1130330289A8DE0E0E0F1E0A4E4B1E001900D92B0
S11303408A95E1F70E944A010E9458000E94E90040
S11303500E94D900789400E710E0D1E00F2EF3E07A
S1130360FF2EF02D6894EE24E2F8CFE00E94C8003E
S113037080913401823011F128F4882349F08130CE
S1130380B1F043C0843061F100F18530A1F13DC08A
S113039080911B0182FF05C0F801D083F0923401E3
S11303A003C081FDD09334010E9468012EC0809166
S11303B01B0182FF2AC01092340127C080911B01C7
S11303C082FF23C01092340120C080911B0182FF60
S11303D004C0F8011082E09234010E94680115C043
S11303E080911B0182FF04C0F801D083F092340194
S11303F00E9468010AC080911B0182FF04C00E9410
S11304004A01109234010E94680180910F018F5FAC
S11304108F3118F480930F0107C010920F0180915F
S113042010018C27809310018FE295E70197F1F773
S113043000C000009BCF1F920F920FB60F921124A1
S11304402F933F934F935F936F937F938F939F93D8
S1130450AF93BF93EF93FF9380913401833089F47A
S113046080912B0190912C018C53914051F48091F7
S11304704A01813031F46BE471E08CE391E00E9435
S1130480F9008EE291E090932C0180932B018DE290
S113049091E09093430180934201289A2998FF9117
S11304A0EF91BF91AF919F918F917F916F915F91E8
S11304B04F913F912F910F900FBE0F901F90189561
S11304C01F920F920FB60F9211242F933F934F93C5
S11304D05F936F937F938F939F93AF93BF93EF93A8
S11304E0FF9380913401833089F480912B019091A2
S11304F02C018E52914051F480914A01813031F4A3
S11305006BE471E08EE291E00E94F9008CE391E0EB
S113051090932C0180932B0185E391E09093430108
S113052080934201299A2898FF91EF91BF91AF914E
S11305309F918F917F916F915F914F913F912F91F7
S11305400F900FBE0F901F9018951F920F920FB629
S11305500F9211248F93EF93FF93E0914201F09156
S1130560430180818F5F808388230CF051C0E09128
S11305704201F09143011082E0912B01F0912C0192
S113058085818150858388230CF042C089E085836E
S11305908481815084838823DCF585E0848383818E
S11305A0815083838823A4F589E0838382818150E9
S11305B0828388236CF585E08283818181508183E5
S11305C0882334F5E0912B01F0912C0189E081839B
S11305D0E0912B01F0912C0180818150808388234C
S11305E0BCF4E0912B01F0912C011082E0912B01DD
S11305F0F0912C011182E0912B01F0912C011282D7
S11306001382148215821092700085E08093340165
S1130610FF91EF918F910F900FBE0F901F9018953F
S1070620F894FFCF78
S11106240000000500000100000000000300BB
S9030000FC
